{
  "contractName": "CadastroPaciente",
  "abi": [
    {
      "inputs": [
        {
          "internalType": "uint256",
          "name": "",
          "type": "uint256"
        }
      ],
      "name": "pacientes",
      "outputs": [
        {
          "internalType": "uint256",
          "name": "id",
          "type": "uint256"
        },
        {
          "internalType": "string",
          "name": "nome",
          "type": "string"
        },
        {
          "internalType": "string",
          "name": "cpf",
          "type": "string"
        },
        {
          "internalType": "uint256",
          "name": "idade",
          "type": "uint256"
        },
        {
          "internalType": "string",
          "name": "endereco",
          "type": "string"
        }
      ],
      "stateMutability": "view",
      "type": "function",
      "constant": true
    },
    {
      "inputs": [],
      "name": "totalPacientes",
      "outputs": [
        {
          "internalType": "uint256",
          "name": "",
          "type": "uint256"
        }
      ],
      "stateMutability": "view",
      "type": "function",
      "constant": true
    },
    {
      "inputs": [
        {
          "internalType": "string",
          "name": "_nome",
          "type": "string"
        },
        {
          "internalType": "string",
          "name": "_cpf",
          "type": "string"
        },
        {
          "internalType": "uint256",
          "name": "_idade",
          "type": "uint256"
        },
        {
          "internalType": "string",
          "name": "_endereco",
          "type": "string"
        }
      ],
      "name": "cadastrarPaciente",
      "outputs": [],
      "stateMutability": "nonpayable",
      "type": "function"
    },
    {
      "inputs": [],
      "name": "consultarPacientes",
      "outputs": [
        {
          "components": [
            {
              "internalType": "uint256",
              "name": "id",
              "type": "uint256"
            },
            {
              "internalType": "string",
              "name": "nome",
              "type": "string"
            },
            {
              "internalType": "string",
              "name": "cpf",
              "type": "string"
            },
            {
              "internalType": "uint256",
              "name": "idade",
              "type": "uint256"
            },
            {
              "internalType": "string",
              "name": "endereco",
              "type": "string"
            }
          ],
          "internalType": "struct CadastroPaciente.Paciente[]",
          "name": "",
          "type": "tuple[]"
        }
      ],
      "stateMutability": "view",
      "type": "function",
      "constant": true
    },
    {
      "inputs": [
        {
          "internalType": "string",
          "name": "_cpf",
          "type": "string"
        }
      ],
      "name": "consultarPacientePorCPF",
      "outputs": [
        {
          "internalType": "uint256",
          "name": "",
          "type": "uint256"
        },
        {
          "internalType": "string",
          "name": "",
          "type": "string"
        },
        {
          "internalType": "string",
          "name": "",
          "type": "string"
        },
        {
          "internalType": "uint256",
          "name": "",
          "type": "uint256"
        },
        {
          "internalType": "string",
          "name": "",
          "type": "string"
        }
      ],
      "stateMutability": "view",
      "type": "function",
      "constant": true
    }
  ],
  "bytecode": "0x608060405234801561001057600080fd5b506116fe806100206000396000f3fe608060405234801561001057600080fd5b50600436106100575760003560e01c806364c138211461005c57806369b9c81a1461007857806372c71043146100ac578063d842abab146100ca578063de8a096e146100fe575b600080fd5b61007660048036038101906100719190610c18565b61011c565b005b610092600480360381019061008d9190610cd3565b610354565b6040516100a3959493929190610daa565b60405180910390f35b6100b461067b565b6040516100c19190610e12565b60405180910390f35b6100e460048036038101906100df9190610e2d565b610681565b6040516100f5959493929190610daa565b60405180910390f35b61010661085f565b6040516101139190610ff9565b60405180910390f35b6000845111610160576040517f08c379a000000000000000000000000000000000000000000000000000000000815260040161015790611067565b60405180910390fd5b60008351116101a4576040517f08c379a000000000000000000000000000000000000000000000000000000000815260040161019b906110d3565b60405180910390fd5b600c82116101e7576040517f08c379a00000000000000000000000000000000000000000000000000000000081526004016101de9061113f565b60405180910390fd5b6002836040516101f7919061119b565b908152602001604051809103902060009054906101000a900460ff1615610253576040517f08c379a000000000000000000000000000000000000000000000000000000000815260040161024a906111fe565b60405180910390fd5b600160008154809291906102669061124d565b919050555060006040518060a0016040528060015481526020018681526020018581526020018481526020018381525090806001815401808255809150506001900390600052602060002090600502016000909190919091506000820151816000015560208201518160010190816102de91906114a1565b5060408201518160020190816102f491906114a1565b5060608201518160030155608082015181600401908161031491906114a1565b5050506001600284604051610329919061119b565b908152602001604051809103902060006101000a81548160ff02191690831515021790555050505050565b60006060806000606060005b6000805490508110156106365786805190602001206000828154811061038957610388611573565b5b90600052602060002090600502016002016040516103a79190611645565b60405180910390200361062357600081815481106103c8576103c7611573565b5b906000526020600020906005020160000154600082815481106103ee576103ed611573565b5b90600052602060002090600502016001016000838154811061041357610412611573565b5b90600052602060002090600502016002016000848154811061043857610437611573565b5b9060005260206000209060050201600301546000858154811061045e5761045d611573565b5b906000526020600020906005020160040183805461047b906112c4565b80601f01602080910402602001604051908101604052809291908181526020018280546104a7906112c4565b80156104f45780601f106104c9576101008083540402835291602001916104f4565b820191906000526020600020905b8154815290600101906020018083116104d757829003601f168201915b50505050509350828054610507906112c4565b80601f0160208091040260200160405190810160405280929190818152602001828054610533906112c4565b80156105805780601f1061055557610100808354040283529160200191610580565b820191906000526020600020905b81548152906001019060200180831161056357829003601f168201915b50505050509250808054610593906112c4565b80601f01602080910402602001604051908101604052809291908181526020018280546105bf906112c4565b801561060c5780601f106105e15761010080835404028352916020019161060c565b820191906000526020600020905b8154815290600101906020018083116105ef57829003601f168201915b505050505090509550955095509550955050610672565b808061062e9061124d565b915050610360565b506040517f08c379a0000000000000000000000000000000000000000000000000000000008152600401610669906116a8565b60405180910390fd5b91939590929450565b60015481565b6000818154811061069157600080fd5b90600052602060002090600502016000915090508060000154908060010180546106ba906112c4565b80601f01602080910402602001604051908101604052809291908181526020018280546106e6906112c4565b80156107335780601f1061070857610100808354040283529160200191610733565b820191906000526020600020905b81548152906001019060200180831161071657829003601f168201915b505050505090806002018054610748906112c4565b80601f0160208091040260200160405190810160405280929190818152602001828054610774906112c4565b80156107c15780601f10610796576101008083540402835291602001916107c1565b820191906000526020600020905b8154815290600101906020018083116107a457829003601f168201915b5050505050908060030154908060040180546107dc906112c4565b80601f0160208091040260200160405190810160405280929190818152602001828054610808906112c4565b80156108555780601f1061082a57610100808354040283529160200191610855565b820191906000526020600020905b81548152906001019060200180831161083857829003601f168201915b5050505050905085565b60606000805480602002602001604051908101604052809291908181526020016000905b82821015610a7f57838290600052602060002090600502016040518060a0016040529081600082015481526020016001820180546108c0906112c4565b80601f01602080910402602001604051908101604052809291908181526020018280546108ec906112c4565b80156109395780601f1061090e57610100808354040283529160200191610939565b820191906000526020600020905b81548152906001019060200180831161091c57829003601f168201915b50505050508152602001600282018054610952906112c4565b80601f016020809104026020016040519081016040528092919081815260200182805461097e906112c4565b80156109cb5780601f106109a0576101008083540402835291602001916109cb565b820191906000526020600020905b8154815290600101906020018083116109ae57829003601f168201915b50505050508152602001600382015481526020016004820180546109ee906112c4565b80601f0160208091040260200160405190810160405280929190818152602001828054610a1a906112c4565b8015610a675780601f10610a3c57610100808354040283529160200191610a67565b820191906000526020600020905b815481529060010190602001808311610a4a57829003601f168201915b50505050508152505081526020019060010190610883565b50505050905090565b6000604051905090565b600080fd5b600080fd5b600080fd5b600080fd5b6000601f19601f8301169050919050565b7f4e487b7100000000000000000000000000000000000000000000000000000000600052604160045260246000fd5b610aef82610aa6565b810181811067ffffffffffffffff82111715610b0e57610b0d610ab7565b5b80604052505050565b6000610b21610a88565b9050610b2d8282610ae6565b919050565b600067ffffffffffffffff821115610b4d57610b4c610ab7565b5b610b5682610aa6565b9050602081019050919050565b82818337600083830152505050565b6000610b85610b8084610b32565b610b17565b905082815260208101848484011115610ba157610ba0610aa1565b5b610bac848285610b63565b509392505050565b600082601f830112610bc957610bc8610a9c565b5b8135610bd9848260208601610b72565b91505092915050565b6000819050919050565b610bf581610be2565b8114610c0057600080fd5b50565b600081359050610c1281610bec565b92915050565b60008060008060808587031215610c3257610c31610a92565b5b600085013567ffffffffffffffff811115610c5057610c4f610a97565b5b610c5c87828801610bb4565b945050602085013567ffffffffffffffff811115610c7d57610c7c610a97565b5b610c8987828801610bb4565b9350506040610c9a87828801610c03565b925050606085013567ffffffffffffffff811115610cbb57610cba610a97565b5b610cc787828801610bb4565b91505092959194509250565b600060208284031215610ce957610ce8610a92565b5b600082013567ffffffffffffffff811115610d0757610d06610a97565b5b610d1384828501610bb4565b91505092915050565b610d2581610be2565b82525050565b600081519050919050565b600082825260208201905092915050565b60005b83811015610d65578082015181840152602081019050610d4a565b60008484015250505050565b6000610d7c82610d2b565b610d868185610d36565b9350610d96818560208601610d47565b610d9f81610aa6565b840191505092915050565b600060a082019050610dbf6000830188610d1c565b8181036020830152610dd18187610d71565b90508181036040830152610de58186610d71565b9050610df46060830185610d1c565b8181036080830152610e068184610d71565b90509695505050505050565b6000602082019050610e276000830184610d1c565b92915050565b600060208284031215610e4357610e42610a92565b5b6000610e5184828501610c03565b91505092915050565b600081519050919050565b600082825260208201905092915050565b6000819050602082019050919050565b610e8f81610be2565b82525050565b600082825260208201905092915050565b6000610eb182610d2b565b610ebb8185610e95565b9350610ecb818560208601610d47565b610ed481610aa6565b840191505092915050565b600060a083016000830151610ef76000860182610e86565b5060208301518482036020860152610f0f8282610ea6565b91505060408301518482036040860152610f298282610ea6565b9150506060830151610f3e6060860182610e86565b5060808301518482036080860152610f568282610ea6565b9150508091505092915050565b6000610f6f8383610edf565b905092915050565b6000602082019050919050565b6000610f8f82610e5a565b610f998185610e65565b935083602082028501610fab85610e76565b8060005b85811015610fe75784840389528151610fc88582610f63565b9450610fd383610f77565b925060208a01995050600181019050610faf565b50829750879550505050505092915050565b600060208201905081810360008301526110138184610f84565b905092915050565b7f4e6f6d65206f6272696761746f72696f00000000000000000000000000000000600082015250565b6000611051601083610d36565b915061105c8261101b565b602082019050919050565b6000602082019050818103600083015261108081611044565b9050919050565b7f435046206f6272696761746f72696f0000000000000000000000000000000000600082015250565b60006110bd600f83610d36565b91506110c882611087565b602082019050919050565b600060208201905081810360008301526110ec816110b0565b9050919050565b7f4964616465206465766520736572206d61696f722071756520313220616e6f73600082015250565b6000611129602083610d36565b9150611134826110f3565b602082019050919050565b600060208201905081810360008301526111588161111c565b9050919050565b600081905092915050565b600061117582610d2b565b61117f818561115f565b935061118f818560208601610d47565b80840191505092915050565b60006111a7828461116a565b915081905092915050565b7f435046206a61206361646173747261646f000000000000000000000000000000600082015250565b60006111e8601183610d36565b91506111f3826111b2565b602082019050919050565b60006020820190508181036000830152611217816111db565b9050919050565b7f4e487b7100000000000000000000000000000000000000000000000000000000600052601160045260246000fd5b600061125882610be2565b91507fffffffffffffffffffffffffffffffffffffffffffffffffffffffffffffffff820361128a5761128961121e565b5b600182019050919050565b7f4e487b7100000000000000000000000000000000000000000000000000000000600052602260045260246000fd5b600060028204905060018216806112dc57607f821691505b6020821081036112ef576112ee611295565b5b50919050565b60008190508160005260206000209050919050565b60006020601f8301049050919050565b600082821b905092915050565b6000600883026113577fffffffffffffffffffffffffffffffffffffffffffffffffffffffffffffffff8261131a565b611361868361131a565b95508019841693508086168417925050509392505050565b6000819050919050565b600061139e61139961139484610be2565b611379565b610be2565b9050919050565b6000819050919050565b6113b883611383565b6113cc6113c4826113a5565b848454611327565b825550505050565b600090565b6113e16113d4565b6113ec8184846113af565b505050565b5b81811015611410576114056000826113d9565b6001810190506113f2565b5050565b601f82111561145557611426816112f5565b61142f8461130a565b8101602085101561143e578190505b61145261144a8561130a565b8301826113f1565b50505b505050565b600082821c905092915050565b60006114786000198460080261145a565b1980831691505092915050565b60006114918383611467565b9150826002028217905092915050565b6114aa82610d2b565b67ffffffffffffffff8111156114c3576114c2610ab7565b5b6114cd82546112c4565b6114d8828285611414565b600060209050601f83116001811461150b57600084156114f9578287015190505b6115038582611485565b86555061156b565b601f198416611519866112f5565b60005b828110156115415784890151825560018201915060208501945060208101905061151c565b8683101561155e578489015161155a601f891682611467565b8355505b6001600288020188555050505b505050505050565b7f4e487b7100000000000000000000000000000000000000000000000000000000600052603260045260246000fd5b600081905092915050565b60008190508160005260206000209050919050565b600081546115cf816112c4565b6115d981866115a2565b945060018216600081146115f457600181146116095761163c565b60ff198316865281151582028601935061163c565b611612856115ad565b60005b8381101561163457815481890152600182019150602081019050611615565b838801955050505b50505092915050565b600061165182846115c2565b915081905092915050565b7f50616369656e7465206e616f20656e636f6e747261646f210000000000000000600082015250565b6000611692601883610d36565b915061169d8261165c565b602082019050919050565b600060208201905081810360008301526116c181611685565b905091905056fea2646970667358221220288accb7f6cca17cd22350b59a911cd6a6080f490167f97d1769e65869e8016664736f6c63430008130033",
  "immutableReferences": {},
  "source": "// SPDX-License-Identifier: MIT\r\npragma solidity >=0.7.0 <0.9.0;\r\n\r\ncontract CadastroPaciente {\r\n    struct Paciente {\r\n        uint id;\r\n        string nome;\r\n        string cpf;\r\n        uint idade;\r\n        string endereco;\r\n    }\r\n    Paciente[] public pacientes;\r\n    uint public totalPacientes;\r\n    mapping(string => bool) private cpfCadastrado;\r\n\r\n    function cadastrarPaciente(\r\n        string memory _nome,\r\n        string memory _cpf,\r\n        uint _idade,\r\n        string memory _endereco\r\n    ) public {\r\n        require(bytes(_nome).length > 0, \"Nome obrigatorio\");\r\n        require(bytes(_cpf).length > 0, \"CPF obrigatorio\");\r\n        require(_idade > 12, \"Idade deve ser maior que 12 anos\");\r\n\r\n        require(!cpfCadastrado[_cpf], \"CPF ja cadastrado\");\r\n\r\n        totalPacientes++;\r\n        pacientes.push(\r\n            Paciente(totalPacientes, _nome, _cpf, _idade, _endereco)\r\n        );\r\n        cpfCadastrado[_cpf] = true;\r\n    }\r\n\r\n    function consultarPacientes() public view returns (Paciente[] memory) {\r\n        return pacientes;\r\n    }\r\n\r\n    function consultarPacientePorCPF(string memory _cpf)\r\n        public\r\n        view\r\n        returns (\r\n            uint,\r\n            string memory,\r\n            string memory,\r\n            uint,\r\n            string memory\r\n        )\r\n    {\r\n        for (uint i = 0; i < pacientes.length; i++) {\r\n            if (keccak256(bytes(pacientes[i].cpf)) == keccak256(bytes(_cpf))) {\r\n                return (\r\n                    pacientes[i].id,\r\n                    pacientes[i].nome,\r\n                    pacientes[i].cpf,\r\n                    pacientes[i].idade,\r\n                    pacientes[i].endereco\r\n                );\r\n            }\r\n        }\r\n        revert(\"Paciente nao encontrado!\");\r\n    }\r\n}",
  "sourcePath": "C:\\Users\\Kamila Queiroz\\OneDrive\\rea de Trabalho\\P7\\blockchain_fase2\\contracts\\contrato_paciente.sol",
  "compiler": {
    "name": "solc",
    "version": "0.8.19+commit.7dd6d404.Emscripten.clang"
  },
  "schemaVersion": "3.4.16",
  "updatedAt": "2025-09-24T23:16:31.195Z",
  "networkType": "ethereum",
  "devdoc": {
    "kind": "dev",
    "methods": {},
    "version": 1
  },
  "userdoc": {
    "kind": "user",
    "methods": {},
    "version": 1
  }
}