{
  "contractName": "CadastroPaciente",
  "abi": [
    {
      "inputs": [
        {
          "internalType": "uint256",
          "name": "",
          "type": "uint256"
        }
      ],
      "name": "pacientes",
      "outputs": [
        {
          "internalType": "uint256",
          "name": "id",
          "type": "uint256"
        },
        {
          "internalType": "string",
          "name": "nome",
          "type": "string"
        },
        {
          "internalType": "string",
          "name": "cpf",
          "type": "string"
        },
        {
          "internalType": "uint256",
          "name": "idade",
          "type": "uint256"
        },
        {
          "internalType": "string",
          "name": "endereco",
          "type": "string"
        }
      ],
      "stateMutability": "view",
      "type": "function",
      "constant": true
    },
    {
      "inputs": [],
      "name": "totalPacientes",
      "outputs": [
        {
          "internalType": "uint256",
          "name": "",
          "type": "uint256"
        }
      ],
      "stateMutability": "view",
      "type": "function",
      "constant": true
    },
    {
      "inputs": [
        {
          "internalType": "string",
          "name": "_nome",
          "type": "string"
        },
        {
          "internalType": "string",
          "name": "_cpf",
          "type": "string"
        },
        {
          "internalType": "uint256",
          "name": "_idade",
          "type": "uint256"
        },
        {
          "internalType": "string",
          "name": "_endereco",
          "type": "string"
        }
      ],
      "name": "cadastrarPaciente",
      "outputs": [],
      "stateMutability": "nonpayable",
      "type": "function"
    },
    {
      "inputs": [
        {
          "internalType": "uint256",
          "name": "_id",
          "type": "uint256"
        }
      ],
      "name": "consultarPaciente",
      "outputs": [
        {
          "internalType": "uint256",
          "name": "",
          "type": "uint256"
        },
        {
          "internalType": "string",
          "name": "",
          "type": "string"
        },
        {
          "internalType": "string",
          "name": "",
          "type": "string"
        },
        {
          "internalType": "uint256",
          "name": "",
          "type": "uint256"
        },
        {
          "internalType": "string",
          "name": "",
          "type": "string"
        }
      ],
      "stateMutability": "view",
      "type": "function",
      "constant": true
    },
    {
      "inputs": [
        {
          "internalType": "string",
          "name": "_cpf",
          "type": "string"
        }
      ],
      "name": "consultarPacientePorCPF",
      "outputs": [
        {
          "internalType": "uint256",
          "name": "",
          "type": "uint256"
        },
        {
          "internalType": "string",
          "name": "",
          "type": "string"
        },
        {
          "internalType": "string",
          "name": "",
          "type": "string"
        },
        {
          "internalType": "uint256",
          "name": "",
          "type": "uint256"
        },
        {
          "internalType": "string",
          "name": "",
          "type": "string"
        }
      ],
      "stateMutability": "view",
      "type": "function",
      "constant": true
    }
  ],
  "bytecode": "0x608060405234801561001057600080fd5b50611636806100206000396000f3fe608060405234801561001057600080fd5b50600436106100575760003560e01c80634d3a3c431461005c57806364c138211461009057806369b9c81a146100ac57806372c71043146100e0578063d842abab146100fe575b600080fd5b61007660048036038101906100719190610bcb565b610132565b604051610087959493929190610c97565b60405180910390f35b6100aa60048036038101906100a59190610e34565b61043e565b005b6100c660048036038101906100c19190610eef565b610676565b6040516100d7959493929190610c97565b60405180910390f35b6100e861099d565b6040516100f59190610f38565b60405180910390f35b61011860048036038101906101139190610bcb565b6109a3565b604051610129959493929190610c97565b60405180910390f35b60006060806000606060005b6000805490508110156103f95786600082815481106101605761015f610f53565b5b906000526020600020906005020160000154036103e6576000818154811061018b5761018a610f53565b5b906000526020600020906005020160000154600082815481106101b1576101b0610f53565b5b9060005260206000209060050201600101600083815481106101d6576101d5610f53565b5b9060005260206000209060050201600201600084815481106101fb576101fa610f53565b5b9060005260206000209060050201600301546000858154811061022157610220610f53565b5b906000526020600020906005020160040183805461023e90610fb1565b80601f016020809104026020016040519081016040528092919081815260200182805461026a90610fb1565b80156102b75780601f1061028c576101008083540402835291602001916102b7565b820191906000526020600020905b81548152906001019060200180831161029a57829003601f168201915b505050505093508280546102ca90610fb1565b80601f01602080910402602001604051908101604052809291908181526020018280546102f690610fb1565b80156103435780601f1061031857610100808354040283529160200191610343565b820191906000526020600020905b81548152906001019060200180831161032657829003601f168201915b5050505050925080805461035690610fb1565b80601f016020809104026020016040519081016040528092919081815260200182805461038290610fb1565b80156103cf5780601f106103a4576101008083540402835291602001916103cf565b820191906000526020600020905b8154815290600101906020018083116103b257829003601f168201915b505050505090509550955095509550955050610435565b80806103f190611011565b91505061013e565b506040517f08c379a000000000000000000000000000000000000000000000000000000000815260040161042c906110a5565b60405180910390fd5b91939590929450565b6000845111610482576040517f08c379a000000000000000000000000000000000000000000000000000000000815260040161047990611111565b60405180910390fd5b60008351116104c6576040517f08c379a00000000000000000000000000000000000000000000000000000000081526004016104bd9061117d565b60405180910390fd5b600c8211610509576040517f08c379a0000000000000000000000000000000000000000000000000000000008152600401610500906111e9565b60405180910390fd5b6002836040516105199190611245565b908152602001604051809103902060009054906101000a900460ff1615610575576040517f08c379a000000000000000000000000000000000000000000000000000000000815260040161056c906112a8565b60405180910390fd5b6001600081548092919061058890611011565b919050555060006040518060a0016040528060015481526020018681526020018581526020018481526020018381525090806001815401808255809150506001900390600052602060002090600502016000909190919091506000820151816000015560208201518160010190816106009190611474565b5060408201518160020190816106169190611474565b506060820151816003015560808201518160040190816106369190611474565b505050600160028460405161064b9190611245565b908152602001604051809103902060006101000a81548160ff02191690831515021790555050505050565b60006060806000606060005b600080549050811015610958578680519060200120600082815481106106ab576106aa610f53565b5b90600052602060002090600502016002016040516106c991906115e9565b60405180910390200361094557600081815481106106ea576106e9610f53565b5b906000526020600020906005020160000154600082815481106107105761070f610f53565b5b90600052602060002090600502016001016000838154811061073557610734610f53565b5b90600052602060002090600502016002016000848154811061075a57610759610f53565b5b906000526020600020906005020160030154600085815481106107805761077f610f53565b5b906000526020600020906005020160040183805461079d90610fb1565b80601f01602080910402602001604051908101604052809291908181526020018280546107c990610fb1565b80156108165780601f106107eb57610100808354040283529160200191610816565b820191906000526020600020905b8154815290600101906020018083116107f957829003601f168201915b5050505050935082805461082990610fb1565b80601f016020809104026020016040519081016040528092919081815260200182805461085590610fb1565b80156108a25780601f10610877576101008083540402835291602001916108a2565b820191906000526020600020905b81548152906001019060200180831161088557829003601f168201915b505050505092508080546108b590610fb1565b80601f01602080910402602001604051908101604052809291908181526020018280546108e190610fb1565b801561092e5780601f106109035761010080835404028352916020019161092e565b820191906000526020600020905b81548152906001019060200180831161091157829003601f168201915b505050505090509550955095509550955050610994565b808061095090611011565b915050610682565b506040517f08c379a000000000000000000000000000000000000000000000000000000000815260040161098b906110a5565b60405180910390fd5b91939590929450565b60015481565b600081815481106109b357600080fd5b90600052602060002090600502016000915090508060000154908060010180546109dc90610fb1565b80601f0160208091040260200160405190810160405280929190818152602001828054610a0890610fb1565b8015610a555780601f10610a2a57610100808354040283529160200191610a55565b820191906000526020600020905b815481529060010190602001808311610a3857829003601f168201915b505050505090806002018054610a6a90610fb1565b80601f0160208091040260200160405190810160405280929190818152602001828054610a9690610fb1565b8015610ae35780601f10610ab857610100808354040283529160200191610ae3565b820191906000526020600020905b815481529060010190602001808311610ac657829003601f168201915b505050505090806003015490806004018054610afe90610fb1565b80601f0160208091040260200160405190810160405280929190818152602001828054610b2a90610fb1565b8015610b775780601f10610b4c57610100808354040283529160200191610b77565b820191906000526020600020905b815481529060010190602001808311610b5a57829003601f168201915b5050505050905085565b6000604051905090565b600080fd5b600080fd5b6000819050919050565b610ba881610b95565b8114610bb357600080fd5b50565b600081359050610bc581610b9f565b92915050565b600060208284031215610be157610be0610b8b565b5b6000610bef84828501610bb6565b91505092915050565b610c0181610b95565b82525050565b600081519050919050565b600082825260208201905092915050565b60005b83811015610c41578082015181840152602081019050610c26565b60008484015250505050565b6000601f19601f8301169050919050565b6000610c6982610c07565b610c738185610c12565b9350610c83818560208601610c23565b610c8c81610c4d565b840191505092915050565b600060a082019050610cac6000830188610bf8565b8181036020830152610cbe8187610c5e565b90508181036040830152610cd28186610c5e565b9050610ce16060830185610bf8565b8181036080830152610cf38184610c5e565b90509695505050505050565b600080fd5b600080fd5b7f4e487b7100000000000000000000000000000000000000000000000000000000600052604160045260246000fd5b610d4182610c4d565b810181811067ffffffffffffffff82111715610d6057610d5f610d09565b5b80604052505050565b6000610d73610b81565b9050610d7f8282610d38565b919050565b600067ffffffffffffffff821115610d9f57610d9e610d09565b5b610da882610c4d565b9050602081019050919050565b82818337600083830152505050565b6000610dd7610dd284610d84565b610d69565b905082815260208101848484011115610df357610df2610d04565b5b610dfe848285610db5565b509392505050565b600082601f830112610e1b57610e1a610cff565b5b8135610e2b848260208601610dc4565b91505092915050565b60008060008060808587031215610e4e57610e4d610b8b565b5b600085013567ffffffffffffffff811115610e6c57610e6b610b90565b5b610e7887828801610e06565b945050602085013567ffffffffffffffff811115610e9957610e98610b90565b5b610ea587828801610e06565b9350506040610eb687828801610bb6565b925050606085013567ffffffffffffffff811115610ed757610ed6610b90565b5b610ee387828801610e06565b91505092959194509250565b600060208284031215610f0557610f04610b8b565b5b600082013567ffffffffffffffff811115610f2357610f22610b90565b5b610f2f84828501610e06565b91505092915050565b6000602082019050610f4d6000830184610bf8565b92915050565b7f4e487b7100000000000000000000000000000000000000000000000000000000600052603260045260246000fd5b7f4e487b7100000000000000000000000000000000000000000000000000000000600052602260045260246000fd5b60006002820490506001821680610fc957607f821691505b602082108103610fdc57610fdb610f82565b5b50919050565b7f4e487b7100000000000000000000000000000000000000000000000000000000600052601160045260246000fd5b600061101c82610b95565b91507fffffffffffffffffffffffffffffffffffffffffffffffffffffffffffffffff820361104e5761104d610fe2565b5b600182019050919050565b7f50616369656e7465206e616f20656e636f6e747261646f210000000000000000600082015250565b600061108f601883610c12565b915061109a82611059565b602082019050919050565b600060208201905081810360008301526110be81611082565b9050919050565b7f4e6f6d65206f6272696761746f72696f00000000000000000000000000000000600082015250565b60006110fb601083610c12565b9150611106826110c5565b602082019050919050565b6000602082019050818103600083015261112a816110ee565b9050919050565b7f435046206f6272696761746f72696f0000000000000000000000000000000000600082015250565b6000611167600f83610c12565b915061117282611131565b602082019050919050565b600060208201905081810360008301526111968161115a565b9050919050565b7f4964616465206465766520736572206d61696f722071756520313220616e6f73600082015250565b60006111d3602083610c12565b91506111de8261119d565b602082019050919050565b60006020820190508181036000830152611202816111c6565b9050919050565b600081905092915050565b600061121f82610c07565b6112298185611209565b9350611239818560208601610c23565b80840191505092915050565b60006112518284611214565b915081905092915050565b7f435046206a61206361646173747261646f000000000000000000000000000000600082015250565b6000611292601183610c12565b915061129d8261125c565b602082019050919050565b600060208201905081810360008301526112c181611285565b9050919050565b60008190508160005260206000209050919050565b60006020601f8301049050919050565b600082821b905092915050565b60006008830261132a7fffffffffffffffffffffffffffffffffffffffffffffffffffffffffffffffff826112ed565b61133486836112ed565b95508019841693508086168417925050509392505050565b6000819050919050565b600061137161136c61136784610b95565b61134c565b610b95565b9050919050565b6000819050919050565b61138b83611356565b61139f61139782611378565b8484546112fa565b825550505050565b600090565b6113b46113a7565b6113bf818484611382565b505050565b5b818110156113e3576113d86000826113ac565b6001810190506113c5565b5050565b601f821115611428576113f9816112c8565b611402846112dd565b81016020851015611411578190505b61142561141d856112dd565b8301826113c4565b50505b505050565b600082821c905092915050565b600061144b6000198460080261142d565b1980831691505092915050565b6000611464838361143a565b9150826002028217905092915050565b61147d82610c07565b67ffffffffffffffff81111561149657611495610d09565b5b6114a08254610fb1565b6114ab8282856113e7565b600060209050601f8311600181146114de57600084156114cc578287015190505b6114d68582611458565b86555061153e565b601f1984166114ec866112c8565b60005b82811015611514578489015182556001820191506020850194506020810190506114ef565b86831015611531578489015161152d601f89168261143a565b8355505b6001600288020188555050505b505050505050565b600081905092915050565b60008190508160005260206000209050919050565b6000815461157381610fb1565b61157d8186611546565b9450600182166000811461159857600181146115ad576115e0565b60ff19831686528115158202860193506115e0565b6115b685611551565b60005b838110156115d8578154818901526001820191506020810190506115b9565b838801955050505b50505092915050565b60006115f58284611566565b91508190509291505056fea2646970667358221220a69b4a06350baa0398ffb2a3ed5bd078e65e02993a4fd6420e0f99b36a1bbd5f64736f6c63430008130033",
  "immutableReferences": {},
  "source": "// SPDX-License-Identifier: MIT\r\npragma solidity >=0.7.0 <0.9.0;\r\n\r\ncontract CadastroPaciente {\r\n    struct Paciente {\r\n        uint id;\r\n        string nome;\r\n        string cpf;\r\n        uint idade;\r\n        string endereco;\r\n    }\r\n    Paciente[] public pacientes;\r\n    uint public totalPacientes;\r\n    mapping(string => bool) private cpfCadastrado;\r\n\r\n    function cadastrarPaciente(\r\n        string memory _nome,\r\n        string memory _cpf,\r\n        uint _idade,\r\n        string memory _endereco\r\n    ) public {\r\n        require(bytes(_nome).length > 0, \"Nome obrigatorio\");\r\n        require(bytes(_cpf).length > 0, \"CPF obrigatorio\");\r\n        require(_idade > 12, \"Idade deve ser maior que 12 anos\");\r\n\r\n        require(!cpfCadastrado[_cpf], \"CPF ja cadastrado\");\r\n\r\n        totalPacientes++;\r\n        pacientes.push(\r\n            Paciente(totalPacientes, _nome, _cpf, _idade, _endereco)\r\n        );\r\n        cpfCadastrado[_cpf] = true;\r\n    }\r\n\r\n    function consultarPaciente(uint _id)\r\n        public\r\n        view\r\n        returns (\r\n            uint,\r\n            string memory,\r\n            string memory,\r\n            uint,\r\n            string memory\r\n        )\r\n    {\r\n        for (uint i = 0; i < pacientes.length; i++) {\r\n            if (pacientes[i].id == _id) {\r\n                return (\r\n                    pacientes[i].id,\r\n                    pacientes[i].nome,\r\n                    pacientes[i].cpf,\r\n                    pacientes[i].idade,\r\n                    pacientes[i].endereco\r\n                );\r\n            }\r\n        }\r\n        revert(\"Paciente nao encontrado!\");\r\n    }\r\n\r\n    function consultarPacientePorCPF(string memory _cpf)\r\n        public\r\n        view\r\n        returns (\r\n            uint,\r\n            string memory,\r\n            string memory,\r\n            uint,\r\n            string memory\r\n        )\r\n    {\r\n        for (uint i = 0; i < pacientes.length; i++) {\r\n            if (keccak256(bytes(pacientes[i].cpf)) == keccak256(bytes(_cpf))) {\r\n                return (\r\n                    pacientes[i].id,\r\n                    pacientes[i].nome,\r\n                    pacientes[i].cpf,\r\n                    pacientes[i].idade,\r\n                    pacientes[i].endereco\r\n                );\r\n            }\r\n        }\r\n        revert(\"Paciente nao encontrado!\");\r\n    }\r\n}",
  "sourcePath": "C:\\Users\\Kamila Queiroz\\OneDrive\\rea de Trabalho\\P7\\blockchain_fase1\\contracts\\contrato_paciente.sol",
  "compiler": {
    "name": "solc",
    "version": "0.8.19+commit.7dd6d404.Emscripten.clang"
  },
  "schemaVersion": "3.4.16",
  "updatedAt": "2025-09-20T16:17:57.518Z",
  "networkType": "ethereum",
  "devdoc": {
    "kind": "dev",
    "methods": {},
    "version": 1
  },
  "userdoc": {
    "kind": "user",
    "methods": {},
    "version": 1
  }
}